{
  "transactions": [
    {
      "hash": "0x72996e007478b0c3617c551181416977536215dac5af8bc33fc1d74c62d373d5",
      "transactionType": "CALL",
      "contractName": "ExercicioToken",
      "contractAddress": "0x3e94d431157e857Ce269746471eeb9b098b73aa3",
      "function": "mint(address,uint256):(bool)",
      "arguments": [
        "0xC9b376F6381f9b31C4F4D46b108255c46B2709B0",
        "1000000000000000000"
      ],
      "transaction": {
        "type": "0x02",
        "from": "0xc9b376f6381f9b31c4f4d46b108255c46b2709b0",
        "to": "0x3e94d431157e857ce269746471eeb9b098b73aa3",
        "gas": "0x125b2",
        "value": "0x0",
        "data": "0x40c10f19000000000000000000000000c9b376f6381f9b31c4f4d46b108255c46b2709b00000000000000000000000000000000000000000000000000de0b6b3a7640000",
        "nonce": "0x13",
        "accessList": []
      },
      "additionalContracts": [],
      "isFixedGasLimit": false
    }
  ],
  "receipts": [
    {
      "transactionHash": "0x72996e007478b0c3617c551181416977536215dac5af8bc33fc1d74c62d373d5",
      "transactionIndex": "0x2",
      "blockHash": "0x317fb9cc74704d0d3f8fe93dcb795c7c33163be7e3326c5143921916386e551e",
      "blockNumber": "0x42ca65",
      "from": "0xC9b376F6381f9b31C4F4D46b108255c46B2709B0",
      "to": "0x3e94d431157e857Ce269746471eeb9b098b73aa3",
      "cumulativeGasUsed": "0x1e934",
      "gasUsed": "0xc8d2",
      "contractAddress": null,
      "logs": [
        {
          "address": "0x3e94d431157e857Ce269746471eeb9b098b73aa3",
          "topics": [
            "0xddf252ad1be2c89b69c2b068fc378daa952ba7f163c4a11628f55a4df523b3ef",
            "0x0000000000000000000000000000000000000000000000000000000000000000",
            "0x000000000000000000000000c9b376f6381f9b31c4f4d46b108255c46b2709b0"
          ],
          "data": "0x0000000000000000000000000000000000000000000000000de0b6b3a7640000",
          "blockHash": "0x317fb9cc74704d0d3f8fe93dcb795c7c33163be7e3326c5143921916386e551e",
          "blockNumber": "0x42ca65",
          "transactionHash": "0x72996e007478b0c3617c551181416977536215dac5af8bc33fc1d74c62d373d5",
          "transactionIndex": "0x2",
          "logIndex": "0x2",
          "removed": false
        }
      ],
      "status": "0x1",
      "logsBloom": "0x00000000000000000000000000000000000000000000000000000000000000000000000000000000000000000000000000000000000000000000000000000000000000000000000000000008000100000000000000000000000000000000000000000000020000000000000000000800000000000000000000100010000000000000000000000000100000000000000000000000000000000000000000000000000000000000000000000000000010000000000000000000000000000000000000000002000000000000000000000000000000000000000000000000000020000000000000400020000000000000000000000000000000000000000000000000",
      "type": "0x2",
      "effectiveGasPrice": "0xfa01027e"
    }
  ],
  "libraries": [],
  "pending": [],
  "returns": {},
  "timestamp": 1695847887,
  "chain": 11155111,
  "multi": false,
  "commit": "c5426c2"
}